{"contracts/Contract.sol":{"OnchainData":{"abi":[{"inputs":[{"internalType":"uint256","name":"_tokenID","type":"uint256"}],"name":"fetchMetadata","outputs":[{"internalType":"string","name":"","type":"string"}],"stateMutability":"pure","type":"function"}],"evm":{"bytecode":{"linkReferences":{},"object":"608060405234801561001057600080fd5b50610a25806100206000396000f3fe608060405234801561001057600080fd5b506004361061002b5760003560e01c8063656c710f14610030575b600080fd5b61004361003e3660046104ba565b610059565b6040516100509190610503565b60405180910390f35b606060006040518060400160405280601281526020017148696b6172692052696f742050617373202360701b815250905060006040518060e0016040528060a481526020016108d060a49139905060006040518060600160405280603e81526020016109b2603e9139905060006040518060600160405280603e8152602001610974603e913990506100e9610493565b60408051808201909152601c81527f7b2274726169745f74797065223a224944222c2276616c7565223a22000000006020820152815261012887610239565b81600160200201819052506040518060600160405280602a8152602001610841602a9139604080830191909152805160608101909152602580825261086b6020830139606080830191909152604080519182019052602280825261081f6020830139608082018190528151602080840151604080860151606087015191516000966101b99695929392909101610568565b60405160208183030381529060405290506000610206876101d98b610239565b888888876040516020016101f2969594939291906105d3565b60405160208183030381529060405261033f565b905060008160405160200161021b9190610706565b60408051601f198184030181529190529a9950505050505050505050565b60608161025d5750506040805180820190915260018152600360fc1b602082015290565b8160005b8115610287578061027181610761565b91506102809050600a83610792565b9150610261565b60008167ffffffffffffffff8111156102a2576102a26107a6565b6040519080825280601f01601f1916602001820160405280156102cc576020820181803683370190505b5090505b8415610337576102e16001836107bc565b91506102ee600a866107d3565b6102f99060306107e7565b60f81b81838151811061030e5761030e610536565b60200101906001600160f81b031916908160001a905350610330600a86610792565b94506102d0565b949350505050565b606081516000141561035f57505060408051602081019091526000815290565b6000604051806060016040528060408152602001610890604091399050600060038451600261038e91906107e7565b6103989190610792565b6103a39060046107ff565b67ffffffffffffffff8111156103bb576103bb6107a6565b6040519080825280601f01601f1916602001820160405280156103e5576020820181803683370190505b509050600182016020820185865187015b80821015610451576003820191508151603f8160121c168501518453600184019350603f81600c1c168501518453600184019350603f8160061c168501518453600184019350603f81168501518453506001830192506103f6565b505060038651066001811461046d576002811461048057610488565b603d6001830353603d6002830353610488565b603d60018303535b509195945050505050565b6040518060a001604052806005905b60608152602001906001900390816104a25790505090565b6000602082840312156104cc57600080fd5b5035919050565b60005b838110156104ee5781810151838201526020016104d6565b838111156104fd576000848401525b50505050565b60208152600082518060208401526105228160408501602087016104d3565b601f01601f19169190910160400192915050565b634e487b7160e01b600052603260045260246000fd5b6000815161055e8185602086016104d3565b9290920192915050565b6000865161057a818460208b016104d3565b86519083019061058e818360208b016104d3565b86519101906105a1818360208a016104d3565b85519101906105b48183602089016104d3565b84519101906105c78183602088016104d3565b01979650505050505050565b693d913730b6b2911d101160b11b815286516000906105f981600a850160208c016104d3565b87519083019061061081600a840160208c016104d3565b72111610113232b9b1b934b83a34b7b7111d101160691b600a9290910191820152865161064481601d840160208b016104d3565b6c1116101134b6b0b3b2911d101160991b601d9290910191820152855161067281602a840160208a016104d3565b741116101130b734b6b0ba34b7b72fbab936111d101160591b602a929091019182015284516106a881603f8401602089016104d3565b6106f86106eb6106de6106d8603f8686010171222c202261747472696275746573223a205b60701b815260120190565b8861054c565b605d60f81b815260010190565b607d60f81b815260010190565b9a9950505050505050505050565b7f646174613a6170706c69636174696f6e2f6a736f6e3b6261736536342c00000081526000825161073e81601d8501602087016104d3565b91909101601d0192915050565b634e487b7160e01b600052601160045260246000fd5b60006000198214156107755761077561074b565b5060010190565b634e487b7160e01b600052601260045260246000fd5b6000826107a1576107a161077c565b500490565b634e487b7160e01b600052604160045260246000fd5b6000828210156107ce576107ce61074b565b500390565b6000826107e2576107e261077c565b500690565b600082198211156107fa576107fa61074b565b500190565b60008160001904831182151516156108195761081961074b565b50029056fe7b2274726169745f74797065223a22506f696e74222c2276616c7565223a2230227d227d2c7b2274726169745f74797065223a22537570706c79222c2276616c7565223a2232353030227d2c7b2274726169745f74797065223a2254797065222c2276616c7565223a2250617373227d2c4142434445464748494a4b4c4d4e4f505152535455565758595a6162636465666768696a6b6c6d6e6f707172737475767778797a303132333435363738392b2f48696b6172692052696f7420506173732069732061206d656d6265727368697020706173732062792048696b61726920526964657273206261636b6564206279204e465420746563686e6f6c6f67792e205468697320706173732077696c6c206772616e742074686520686f6c6465722061636365737320746f207065726b732077697468696e207468652048696b617269205269646572732065636f73797374656d2e687474703a2f2f617277656176652e6e65742f42664a432d58637155616c5971456b51634f68306353443644434e4b58753971426d596b74505155705538687474703a2f2f617277656176652e6e65742f5050684750436345343435746464464d5a597a584e49555f526c2d77627a3047635f505a373677614e7559a2646970667358221220e9d50ac53198bf9760347b86ccd2615e44e432555cdcc6d2ad13fe7480d1749c64736f6c63430008090033","opcodes":"PUSH1 0x80 PUSH1 0x40 MSTORE CALLVALUE DUP1 ISZERO PUSH2 0x10 JUMPI PUSH1 0x0 DUP1 REVERT JUMPDEST POP PUSH2 0xA25 DUP1 PUSH2 0x20 PUSH1 0x0 CODECOPY PUSH1 0x0 RETURN INVALID PUSH1 0x80 PUSH1 0x40 MSTORE CALLVALUE DUP1 ISZERO PUSH2 0x10 JUMPI PUSH1 0x0 DUP1 REVERT JUMPDEST POP PUSH1 0x4 CALLDATASIZE LT PUSH2 0x2B JUMPI PUSH1 0x0 CALLDATALOAD PUSH1 0xE0 SHR DUP1 PUSH4 0x656C710F EQ PUSH2 0x30 JUMPI JUMPDEST PUSH1 0x0 DUP1 REVERT JUMPDEST PUSH2 0x43 PUSH2 0x3E CALLDATASIZE PUSH1 0x4 PUSH2 0x4BA JUMP JUMPDEST PUSH2 0x59 JUMP JUMPDEST PUSH1 0x40 MLOAD PUSH2 0x50 SWAP2 SWAP1 PUSH2 0x503 JUMP JUMPDEST PUSH1 0x40 MLOAD DUP1 SWAP2 SUB SWAP1 RETURN JUMPDEST PUSH1 0x60 PUSH1 0x0 PUSH1 0x40 MLOAD DUP1 PUSH1 0x40 ADD PUSH1 0x40 MSTORE DUP1 PUSH1 0x12 DUP2 MSTORE PUSH1 0x20 ADD PUSH18 0x48696B6172692052696F7420506173732023 PUSH1 0x70 SHL DUP2 MSTORE POP SWAP1 POP PUSH1 0x0 PUSH1 0x40 MLOAD DUP1 PUSH1 0xE0 ADD PUSH1 0x40 MSTORE DUP1 PUSH1 0xA4 DUP2 MSTORE PUSH1 0x20 ADD PUSH2 0x8D0 PUSH1 0xA4 SWAP2 CODECOPY SWAP1 POP PUSH1 0x0 PUSH1 0x40 MLOAD DUP1 PUSH1 0x60 ADD PUSH1 0x40 MSTORE DUP1 PUSH1 0x3E DUP2 MSTORE PUSH1 0x20 ADD PUSH2 0x9B2 PUSH1 0x3E SWAP2 CODECOPY SWAP1 POP PUSH1 0x0 PUSH1 0x40 MLOAD DUP1 PUSH1 0x60 ADD PUSH1 0x40 MSTORE DUP1 PUSH1 0x3E DUP2 MSTORE PUSH1 0x20 ADD PUSH2 0x974 PUSH1 0x3E SWAP2 CODECOPY SWAP1 POP PUSH2 0xE9 PUSH2 0x493 JUMP JUMPDEST PUSH1 0x40 DUP1 MLOAD DUP1 DUP3 ADD SWAP1 SWAP2 MSTORE PUSH1 0x1C DUP2 MSTORE PUSH32 0x7B2274726169745F74797065223A224944222C2276616C7565223A2200000000 PUSH1 0x20 DUP3 ADD MSTORE DUP2 MSTORE PUSH2 0x128 DUP8 PUSH2 0x239 JUMP JUMPDEST DUP2 PUSH1 0x1 PUSH1 0x20 MUL ADD DUP2 SWAP1 MSTORE POP PUSH1 0x40 MLOAD DUP1 PUSH1 0x60 ADD PUSH1 0x40 MSTORE DUP1 PUSH1 0x2A DUP2 MSTORE PUSH1 0x20 ADD PUSH2 0x841 PUSH1 0x2A SWAP2 CODECOPY PUSH1 0x40 DUP1 DUP4 ADD SWAP2 SWAP1 SWAP2 MSTORE DUP1 MLOAD PUSH1 0x60 DUP2 ADD SWAP1 SWAP2 MSTORE PUSH1 0x25 DUP1 DUP3 MSTORE PUSH2 0x86B PUSH1 0x20 DUP4 ADD CODECOPY PUSH1 0x60 DUP1 DUP4 ADD SWAP2 SWAP1 SWAP2 MSTORE PUSH1 0x40 DUP1 MLOAD SWAP2 DUP3 ADD SWAP1 MSTORE PUSH1 0x22 DUP1 DUP3 MSTORE PUSH2 0x81F PUSH1 0x20 DUP4 ADD CODECOPY PUSH1 0x80 DUP3 ADD DUP2 SWAP1 MSTORE DUP2 MLOAD PUSH1 0x20 DUP1 DUP5 ADD MLOAD PUSH1 0x40 DUP1 DUP7 ADD MLOAD PUSH1 0x60 DUP8 ADD MLOAD SWAP2 MLOAD PUSH1 0x0 SWAP7 PUSH2 0x1B9 SWAP7 SWAP6 SWAP3 SWAP4 SWAP3 SWAP1 SWAP2 ADD PUSH2 0x568 JUMP JUMPDEST PUSH1 0x40 MLOAD PUSH1 0x20 DUP2 DUP4 SUB SUB DUP2 MSTORE SWAP1 PUSH1 0x40 MSTORE SWAP1 POP PUSH1 0x0 PUSH2 0x206 DUP8 PUSH2 0x1D9 DUP12 PUSH2 0x239 JUMP JUMPDEST DUP9 DUP9 DUP9 DUP8 PUSH1 0x40 MLOAD PUSH1 0x20 ADD PUSH2 0x1F2 SWAP7 SWAP6 SWAP5 SWAP4 SWAP3 SWAP2 SWAP1 PUSH2 0x5D3 JUMP JUMPDEST PUSH1 0x40 MLOAD PUSH1 0x20 DUP2 DUP4 SUB SUB DUP2 MSTORE SWAP1 PUSH1 0x40 MSTORE PUSH2 0x33F JUMP JUMPDEST SWAP1 POP PUSH1 0x0 DUP2 PUSH1 0x40 MLOAD PUSH1 0x20 ADD PUSH2 0x21B SWAP2 SWAP1 PUSH2 0x706 JUMP JUMPDEST PUSH1 0x40 DUP1 MLOAD PUSH1 0x1F NOT DUP2 DUP5 SUB ADD DUP2 MSTORE SWAP2 SWAP1 MSTORE SWAP11 SWAP10 POP POP POP POP POP POP POP POP POP POP JUMP JUMPDEST PUSH1 0x60 DUP2 PUSH2 0x25D JUMPI POP POP PUSH1 0x40 DUP1 MLOAD DUP1 DUP3 ADD SWAP1 SWAP2 MSTORE PUSH1 0x1 DUP2 MSTORE PUSH1 0x3 PUSH1 0xFC SHL PUSH1 0x20 DUP3 ADD MSTORE SWAP1 JUMP JUMPDEST DUP2 PUSH1 0x0 JUMPDEST DUP2 ISZERO PUSH2 0x287 JUMPI DUP1 PUSH2 0x271 DUP2 PUSH2 0x761 JUMP JUMPDEST SWAP2 POP PUSH2 0x280 SWAP1 POP PUSH1 0xA DUP4 PUSH2 0x792 JUMP JUMPDEST SWAP2 POP PUSH2 0x261 JUMP JUMPDEST PUSH1 0x0 DUP2 PUSH8 0xFFFFFFFFFFFFFFFF DUP2 GT ISZERO PUSH2 0x2A2 JUMPI PUSH2 0x2A2 PUSH2 0x7A6 JUMP JUMPDEST PUSH1 0x40 MLOAD SWAP1 DUP1 DUP3 MSTORE DUP1 PUSH1 0x1F ADD PUSH1 0x1F NOT AND PUSH1 0x20 ADD DUP3 ADD PUSH1 0x40 MSTORE DUP1 ISZERO PUSH2 0x2CC JUMPI PUSH1 0x20 DUP3 ADD DUP2 DUP1 CALLDATASIZE DUP4 CALLDATACOPY ADD SWAP1 POP JUMPDEST POP SWAP1 POP JUMPDEST DUP5 ISZERO PUSH2 0x337 JUMPI PUSH2 0x2E1 PUSH1 0x1 DUP4 PUSH2 0x7BC JUMP JUMPDEST SWAP2 POP PUSH2 0x2EE PUSH1 0xA DUP7 PUSH2 0x7D3 JUMP JUMPDEST PUSH2 0x2F9 SWAP1 PUSH1 0x30 PUSH2 0x7E7 JUMP JUMPDEST PUSH1 0xF8 SHL DUP2 DUP4 DUP2 MLOAD DUP2 LT PUSH2 0x30E JUMPI PUSH2 0x30E PUSH2 0x536 JUMP JUMPDEST PUSH1 0x20 ADD ADD SWAP1 PUSH1 0x1 PUSH1 0x1 PUSH1 0xF8 SHL SUB NOT AND SWAP1 DUP2 PUSH1 0x0 BYTE SWAP1 MSTORE8 POP PUSH2 0x330 PUSH1 0xA DUP7 PUSH2 0x792 JUMP JUMPDEST SWAP5 POP PUSH2 0x2D0 JUMP JUMPDEST SWAP5 SWAP4 POP POP POP POP JUMP JUMPDEST PUSH1 0x60 DUP2 MLOAD PUSH1 0x0 EQ ISZERO PUSH2 0x35F JUMPI POP POP PUSH1 0x40 DUP1 MLOAD PUSH1 0x20 DUP2 ADD SWAP1 SWAP2 MSTORE PUSH1 0x0 DUP2 MSTORE SWAP1 JUMP JUMPDEST PUSH1 0x0 PUSH1 0x40 MLOAD DUP1 PUSH1 0x60 ADD PUSH1 0x40 MSTORE DUP1 PUSH1 0x40 DUP2 MSTORE PUSH1 0x20 ADD PUSH2 0x890 PUSH1 0x40 SWAP2 CODECOPY SWAP1 POP PUSH1 0x0 PUSH1 0x3 DUP5 MLOAD PUSH1 0x2 PUSH2 0x38E SWAP2 SWAP1 PUSH2 0x7E7 JUMP JUMPDEST PUSH2 0x398 SWAP2 SWAP1 PUSH2 0x792 JUMP JUMPDEST PUSH2 0x3A3 SWAP1 PUSH1 0x4 PUSH2 0x7FF JUMP JUMPDEST PUSH8 0xFFFFFFFFFFFFFFFF DUP2 GT ISZERO PUSH2 0x3BB JUMPI PUSH2 0x3BB PUSH2 0x7A6 JUMP JUMPDEST PUSH1 0x40 MLOAD SWAP1 DUP1 DUP3 MSTORE DUP1 PUSH1 0x1F ADD PUSH1 0x1F NOT AND PUSH1 0x20 ADD DUP3 ADD PUSH1 0x40 MSTORE DUP1 ISZERO PUSH2 0x3E5 JUMPI PUSH1 0x20 DUP3 ADD DUP2 DUP1 CALLDATASIZE DUP4 CALLDATACOPY ADD SWAP1 POP JUMPDEST POP SWAP1 POP PUSH1 0x1 DUP3 ADD PUSH1 0x20 DUP3 ADD DUP6 DUP7 MLOAD DUP8 ADD JUMPDEST DUP1 DUP3 LT ISZERO PUSH2 0x451 JUMPI PUSH1 0x3 DUP3 ADD SWAP2 POP DUP2 MLOAD PUSH1 0x3F DUP2 PUSH1 0x12 SHR AND DUP6 ADD MLOAD DUP5 MSTORE8 PUSH1 0x1 DUP5 ADD SWAP4 POP PUSH1 0x3F DUP2 PUSH1 0xC SHR AND DUP6 ADD MLOAD DUP5 MSTORE8 PUSH1 0x1 DUP5 ADD SWAP4 POP PUSH1 0x3F DUP2 PUSH1 0x6 SHR AND DUP6 ADD MLOAD DUP5 MSTORE8 PUSH1 0x1 DUP5 ADD SWAP4 POP PUSH1 0x3F DUP2 AND DUP6 ADD MLOAD DUP5 MSTORE8 POP PUSH1 0x1 DUP4 ADD SWAP3 POP PUSH2 0x3F6 JUMP JUMPDEST POP POP PUSH1 0x3 DUP7 MLOAD MOD PUSH1 0x1 DUP2 EQ PUSH2 0x46D JUMPI PUSH1 0x2 DUP2 EQ PUSH2 0x480 JUMPI PUSH2 0x488 JUMP JUMPDEST PUSH1 0x3D PUSH1 0x1 DUP4 SUB MSTORE8 PUSH1 0x3D PUSH1 0x2 DUP4 SUB MSTORE8 PUSH2 0x488 JUMP JUMPDEST PUSH1 0x3D PUSH1 0x1 DUP4 SUB MSTORE8 JUMPDEST POP SWAP2 SWAP6 SWAP5 POP POP POP POP POP JUMP JUMPDEST PUSH1 0x40 MLOAD DUP1 PUSH1 0xA0 ADD PUSH1 0x40 MSTORE DUP1 PUSH1 0x5 SWAP1 JUMPDEST PUSH1 0x60 DUP2 MSTORE PUSH1 0x20 ADD SWAP1 PUSH1 0x1 SWAP1 SUB SWAP1 DUP2 PUSH2 0x4A2 JUMPI SWAP1 POP POP SWAP1 JUMP JUMPDEST PUSH1 0x0 PUSH1 0x20 DUP3 DUP5 SUB SLT ISZERO PUSH2 0x4CC JUMPI PUSH1 0x0 DUP1 REVERT JUMPDEST POP CALLDATALOAD SWAP2 SWAP1 POP JUMP JUMPDEST PUSH1 0x0 JUMPDEST DUP4 DUP2 LT ISZERO PUSH2 0x4EE JUMPI DUP2 DUP2 ADD MLOAD DUP4 DUP3 ADD MSTORE PUSH1 0x20 ADD PUSH2 0x4D6 JUMP JUMPDEST DUP4 DUP2 GT ISZERO PUSH2 0x4FD JUMPI PUSH1 0x0 DUP5 DUP5 ADD MSTORE JUMPDEST POP POP POP POP JUMP JUMPDEST PUSH1 0x20 DUP2 MSTORE PUSH1 0x0 DUP3 MLOAD DUP1 PUSH1 0x20 DUP5 ADD MSTORE PUSH2 0x522 DUP2 PUSH1 0x40 DUP6 ADD PUSH1 0x20 DUP8 ADD PUSH2 0x4D3 JUMP JUMPDEST PUSH1 0x1F ADD PUSH1 0x1F NOT AND SWAP2 SWAP1 SWAP2 ADD PUSH1 0x40 ADD SWAP3 SWAP2 POP POP JUMP JUMPDEST PUSH4 0x4E487B71 PUSH1 0xE0 SHL PUSH1 0x0 MSTORE PUSH1 0x32 PUSH1 0x4 MSTORE PUSH1 0x24 PUSH1 0x0 REVERT JUMPDEST PUSH1 0x0 DUP2 MLOAD PUSH2 0x55E DUP2 DUP6 PUSH1 0x20 DUP7 ADD PUSH2 0x4D3 JUMP JUMPDEST SWAP3 SWAP1 SWAP3 ADD SWAP3 SWAP2 POP POP JUMP JUMPDEST PUSH1 0x0 DUP7 MLOAD PUSH2 0x57A DUP2 DUP5 PUSH1 0x20 DUP12 ADD PUSH2 0x4D3 JUMP JUMPDEST DUP7 MLOAD SWAP1 DUP4 ADD SWAP1 PUSH2 0x58E DUP2 DUP4 PUSH1 0x20 DUP12 ADD PUSH2 0x4D3 JUMP JUMPDEST DUP7 MLOAD SWAP2 ADD SWAP1 PUSH2 0x5A1 DUP2 DUP4 PUSH1 0x20 DUP11 ADD PUSH2 0x4D3 JUMP JUMPDEST DUP6 MLOAD SWAP2 ADD SWAP1 PUSH2 0x5B4 DUP2 DUP4 PUSH1 0x20 DUP10 ADD PUSH2 0x4D3 JUMP JUMPDEST DUP5 MLOAD SWAP2 ADD SWAP1 PUSH2 0x5C7 DUP2 DUP4 PUSH1 0x20 DUP9 ADD PUSH2 0x4D3 JUMP JUMPDEST ADD SWAP8 SWAP7 POP POP POP POP POP POP POP JUMP JUMPDEST PUSH10 0x3D913730B6B2911D1011 PUSH1 0xB1 SHL DUP2 MSTORE DUP7 MLOAD PUSH1 0x0 SWAP1 PUSH2 0x5F9 DUP2 PUSH1 0xA DUP6 ADD PUSH1 0x20 DUP13 ADD PUSH2 0x4D3 JUMP JUMPDEST DUP8 MLOAD SWAP1 DUP4 ADD SWAP1 PUSH2 0x610 DUP2 PUSH1 0xA DUP5 ADD PUSH1 0x20 DUP13 ADD PUSH2 0x4D3 JUMP JUMPDEST PUSH19 0x111610113232B9B1B934B83A34B7B7111D1011 PUSH1 0x69 SHL PUSH1 0xA SWAP3 SWAP1 SWAP2 ADD SWAP2 DUP3 ADD MSTORE DUP7 MLOAD PUSH2 0x644 DUP2 PUSH1 0x1D DUP5 ADD PUSH1 0x20 DUP12 ADD PUSH2 0x4D3 JUMP JUMPDEST PUSH13 0x1116101134B6B0B3B2911D1011 PUSH1 0x99 SHL PUSH1 0x1D SWAP3 SWAP1 SWAP2 ADD SWAP2 DUP3 ADD MSTORE DUP6 MLOAD PUSH2 0x672 DUP2 PUSH1 0x2A DUP5 ADD PUSH1 0x20 DUP11 ADD PUSH2 0x4D3 JUMP JUMPDEST PUSH21 0x1116101130B734B6B0BA34B7B72FBAB936111D1011 PUSH1 0x59 SHL PUSH1 0x2A SWAP3 SWAP1 SWAP2 ADD SWAP2 DUP3 ADD MSTORE DUP5 MLOAD PUSH2 0x6A8 DUP2 PUSH1 0x3F DUP5 ADD PUSH1 0x20 DUP10 ADD PUSH2 0x4D3 JUMP JUMPDEST PUSH2 0x6F8 PUSH2 0x6EB PUSH2 0x6DE PUSH2 0x6D8 PUSH1 0x3F DUP7 DUP7 ADD ADD PUSH18 0x222C202261747472696275746573223A205B PUSH1 0x70 SHL DUP2 MSTORE PUSH1 0x12 ADD SWAP1 JUMP JUMPDEST DUP9 PUSH2 0x54C JUMP JUMPDEST PUSH1 0x5D PUSH1 0xF8 SHL DUP2 MSTORE PUSH1 0x1 ADD SWAP1 JUMP JUMPDEST PUSH1 0x7D PUSH1 0xF8 SHL DUP2 MSTORE PUSH1 0x1 ADD SWAP1 JUMP JUMPDEST SWAP11 SWAP10 POP POP POP POP POP POP POP POP POP POP JUMP JUMPDEST PUSH32 0x646174613A6170706C69636174696F6E2F6A736F6E3B6261736536342C000000 DUP2 MSTORE PUSH1 0x0 DUP3 MLOAD PUSH2 0x73E DUP2 PUSH1 0x1D DUP6 ADD PUSH1 0x20 DUP8 ADD PUSH2 0x4D3 JUMP JUMPDEST SWAP2 SWAP1 SWAP2 ADD PUSH1 0x1D ADD SWAP3 SWAP2 POP POP JUMP JUMPDEST PUSH4 0x4E487B71 PUSH1 0xE0 SHL PUSH1 0x0 MSTORE PUSH1 0x11 PUSH1 0x4 MSTORE PUSH1 0x24 PUSH1 0x0 REVERT JUMPDEST PUSH1 0x0 PUSH1 0x0 NOT DUP3 EQ ISZERO PUSH2 0x775 JUMPI PUSH2 0x775 PUSH2 0x74B JUMP JUMPDEST POP PUSH1 0x1 ADD SWAP1 JUMP JUMPDEST PUSH4 0x4E487B71 PUSH1 0xE0 SHL PUSH1 0x0 MSTORE PUSH1 0x12 PUSH1 0x4 MSTORE PUSH1 0x24 PUSH1 0x0 REVERT JUMPDEST PUSH1 0x0 DUP3 PUSH2 0x7A1 JUMPI PUSH2 0x7A1 PUSH2 0x77C JUMP JUMPDEST POP DIV SWAP1 JUMP JUMPDEST PUSH4 0x4E487B71 PUSH1 0xE0 SHL PUSH1 0x0 MSTORE PUSH1 0x41 PUSH1 0x4 MSTORE PUSH1 0x24 PUSH1 0x0 REVERT JUMPDEST PUSH1 0x0 DUP3 DUP3 LT ISZERO PUSH2 0x7CE JUMPI PUSH2 0x7CE PUSH2 0x74B JUMP JUMPDEST POP SUB SWAP1 JUMP JUMPDEST PUSH1 0x0 DUP3 PUSH2 0x7E2 JUMPI PUSH2 0x7E2 PUSH2 0x77C JUMP JUMPDEST POP MOD SWAP1 JUMP JUMPDEST PUSH1 0x0 DUP3 NOT DUP3 GT ISZERO PUSH2 0x7FA JUMPI PUSH2 0x7FA PUSH2 0x74B JUMP JUMPDEST POP ADD SWAP1 JUMP JUMPDEST PUSH1 0x0 DUP2 PUSH1 0x0 NOT DIV DUP4 GT DUP3 ISZERO ISZERO AND ISZERO PUSH2 0x819 JUMPI PUSH2 0x819 PUSH2 0x74B JUMP JUMPDEST POP MUL SWAP1 JUMP INVALID PUSH28 0x2274726169745F74797065223A22506F696E74222C2276616C756522 GASPRICE 0x22 ADDRESS 0x22 PUSH30 0x227D2C7B2274726169745F74797065223A22537570706C79222C2276616C PUSH22 0x65223A2232353030227D2C7B2274726169745F747970 PUSH6 0x223A22547970 PUSH6 0x222C2276616C PUSH22 0x65223A2250617373227D2C4142434445464748494A4B 0x4C 0x4D 0x4E 0x4F POP MLOAD MSTORE MSTORE8 SLOAD SSTORE JUMP JUMPI PC MSIZE GAS PUSH2 0x6263 PUSH5 0x6566676869 PUSH11 0x6B6C6D6E6F707172737475 PUSH23 0x7778797A303132333435363738392B2F48696B61726920 MSTORE PUSH10 0x6F742050617373206973 KECCAK256 PUSH2 0x206D PUSH6 0x6D6265727368 PUSH10 0x70207061737320627920 BASEFEE PUSH10 0x6B617269205269646572 PUSH20 0x206261636B6564206279204E465420746563686E PUSH16 0x6C6F67792E2054686973207061737320 PUSH24 0x696C6C206772616E742074686520686F6C64657220616363 PUSH6 0x737320746F20 PUSH17 0x65726B732077697468696E207468652048 PUSH10 0x6B617269205269646572 PUSH20 0x2065636F73797374656D2E687474703A2F2F6172 PUSH24 0x656176652E6E65742F42664A432D58637155616C5971456B MLOAD PUSH4 0x4F683063 MSTORE8 DIFFICULTY CALLDATASIZE DIFFICULTY NUMBER 0x4E 0x4B PC PUSH22 0x3971426D596B74505155705538687474703A2F2F6172 PUSH24 0x656176652E6E65742F505068475043634534343574646446 0x4D GAS MSIZE PUSH27 0x584E49555F526C2D77627A3047635F505A373677614E7559A26469 PUSH17 0x667358221220E9D50AC53198BF9760347B DUP7 0xCC 0xD2 PUSH2 0x5E44 0xE4 ORIGIN SSTORE 0x5C 0xDC 0xC6 0xD2 0xAD SGT INVALID PUSH21 0x80D1749C64736F6C63430008090033000000000000 "},"methodIdentifiers":{"fetchMetadata(uint256)":"656c710f"}}}}}