{
  "_format": "hh-sol-artifact-1",
  "contractName": "OnchainData",
  "sourceName": "contracts/Contract.sol",
  "abi": [
    {
      "inputs": [
        {
          "internalType": "uint256",
          "name": "_tokenID",
          "type": "uint256"
        }
      ],
      "name": "fetchMetadata",
      "outputs": [
        {
          "internalType": "string",
          "name": "",
          "type": "string"
        }
      ],
      "stateMutability": "pure",
      "type": "function"
    }
  ],
  "bytecode": "0x608060405234801561001057600080fd5b50610a25806100206000396000f3fe608060405234801561001057600080fd5b506004361061002b5760003560e01c8063656c710f14610030575b600080fd5b61004361003e3660046104ba565b610059565b6040516100509190610503565b60405180910390f35b606060006040518060400160405280601281526020017148696b6172692052696f742050617373202360701b815250905060006040518060e0016040528060a481526020016108d060a49139905060006040518060600160405280603e81526020016109b2603e9139905060006040518060600160405280603e8152602001610974603e913990506100e9610493565b60408051808201909152601c81527f7b2274726169745f74797065223a224944222c2276616c7565223a22000000006020820152815261012887610239565b81600160200201819052506040518060600160405280602a8152602001610841602a9139604080830191909152805160608101909152602580825261086b6020830139606080830191909152604080519182019052602280825261081f6020830139608082018190528151602080840151604080860151606087015191516000966101b99695929392909101610568565b60405160208183030381529060405290506000610206876101d98b610239565b888888876040516020016101f2969594939291906105d3565b60405160208183030381529060405261033f565b905060008160405160200161021b9190610706565b60408051601f198184030181529190529a9950505050505050505050565b60608161025d5750506040805180820190915260018152600360fc1b602082015290565b8160005b8115610287578061027181610761565b91506102809050600a83610792565b9150610261565b60008167ffffffffffffffff8111156102a2576102a26107a6565b6040519080825280601f01601f1916602001820160405280156102cc576020820181803683370190505b5090505b8415610337576102e16001836107bc565b91506102ee600a866107d3565b6102f99060306107e7565b60f81b81838151811061030e5761030e610536565b60200101906001600160f81b031916908160001a905350610330600a86610792565b94506102d0565b949350505050565b606081516000141561035f57505060408051602081019091526000815290565b6000604051806060016040528060408152602001610890604091399050600060038451600261038e91906107e7565b6103989190610792565b6103a39060046107ff565b67ffffffffffffffff8111156103bb576103bb6107a6565b6040519080825280601f01601f1916602001820160405280156103e5576020820181803683370190505b509050600182016020820185865187015b80821015610451576003820191508151603f8160121c168501518453600184019350603f81600c1c168501518453600184019350603f8160061c168501518453600184019350603f81168501518453506001830192506103f6565b505060038651066001811461046d576002811461048057610488565b603d6001830353603d6002830353610488565b603d60018303535b509195945050505050565b6040518060a001604052806005905b60608152602001906001900390816104a25790505090565b6000602082840312156104cc57600080fd5b5035919050565b60005b838110156104ee5781810151838201526020016104d6565b838111156104fd576000848401525b50505050565b60208152600082518060208401526105228160408501602087016104d3565b601f01601f19169190910160400192915050565b634e487b7160e01b600052603260045260246000fd5b6000815161055e8185602086016104d3565b9290920192915050565b6000865161057a818460208b016104d3565b86519083019061058e818360208b016104d3565b86519101906105a1818360208a016104d3565b85519101906105b48183602089016104d3565b84519101906105c78183602088016104d3565b01979650505050505050565b693d913730b6b2911d101160b11b815286516000906105f981600a850160208c016104d3565b87519083019061061081600a840160208c016104d3565b72111610113232b9b1b934b83a34b7b7111d101160691b600a9290910191820152865161064481601d840160208b016104d3565b6c1116101134b6b0b3b2911d101160991b601d9290910191820152855161067281602a840160208a016104d3565b741116101130b734b6b0ba34b7b72fbab936111d101160591b602a929091019182015284516106a881603f8401602089016104d3565b6106f86106eb6106de6106d8603f8686010171222c202261747472696275746573223a205b60701b815260120190565b8861054c565b605d60f81b815260010190565b607d60f81b815260010190565b9a9950505050505050505050565b7f646174613a6170706c69636174696f6e2f6a736f6e3b6261736536342c00000081526000825161073e81601d8501602087016104d3565b91909101601d0192915050565b634e487b7160e01b600052601160045260246000fd5b60006000198214156107755761077561074b565b5060010190565b634e487b7160e01b600052601260045260246000fd5b6000826107a1576107a161077c565b500490565b634e487b7160e01b600052604160045260246000fd5b6000828210156107ce576107ce61074b565b500390565b6000826107e2576107e261077c565b500690565b600082198211156107fa576107fa61074b565b500190565b60008160001904831182151516156108195761081961074b565b50029056fe7b2274726169745f74797065223a22506f696e74222c2276616c7565223a2230227d227d2c7b2274726169745f74797065223a22537570706c79222c2276616c7565223a2232353030227d2c7b2274726169745f74797065223a2254797065222c2276616c7565223a2250617373227d2c4142434445464748494a4b4c4d4e4f505152535455565758595a6162636465666768696a6b6c6d6e6f707172737475767778797a303132333435363738392b2f48696b6172692052696f7420506173732069732061206d656d6265727368697020706173732062792048696b61726920526964657273206261636b6564206279204e465420746563686e6f6c6f67792e205468697320706173732077696c6c206772616e742074686520686f6c6465722061636365737320746f207065726b732077697468696e207468652048696b617269205269646572732065636f73797374656d2e687474703a2f2f617277656176652e6e65742f42664a432d58637155616c5971456b51634f68306353443644434e4b58753971426d596b74505155705538687474703a2f2f617277656176652e6e65742f5050684750436345343435746464464d5a597a584e49555f526c2d77627a3047635f505a373677614e7559a2646970667358221220e9d50ac53198bf9760347b86ccd2615e44e432555cdcc6d2ad13fe7480d1749c64736f6c63430008090033",
  "linkReferences": {},
  "deployedLinkReferences": {}
}